{
    "_format": "hh-sol-artifact-1",
    "contractName": "Chess",
    "sourceName": "contracts/Chess.sol",
    "abi": [
        {
            "anonymous": false,
            "inputs": [
                {
                    "indexed": true,
                    "internalType": "string",
                    "name": "whitePlayer",
                    "type": "string"
                },
                {
                    "indexed": true,
                    "internalType": "string",
                    "name": "blackPlayer",
                    "type": "string"
                },
                {
                    "indexed": false,
                    "internalType": "string",
                    "name": "gameHistory",
                    "type": "string"
                },
                {
                    "components": [
                        {
                            "internalType": "string",
                            "name": "signature",
                            "type": "string"
                        },
                        {
                            "internalType": "string",
                            "name": "publicKey",
                            "type": "string"
                        }
                    ],
                    "indexed": false,
                    "internalType": "struct Chess.PeerCommit[]",
                    "name": "signatures",
                    "type": "tuple[]"
                }
            ],
            "name": "GameHistoryUpdated",
            "type": "event"
        },
        {
            "inputs": [
                {
                    "internalType": "string",
                    "name": "whitePlayer",
                    "type": "string"
                },
                {
                    "internalType": "string",
                    "name": "blackPlayer",
                    "type": "string"
                }
            ],
            "name": "getGameHistory",
            "outputs": [
                {
                    "internalType": "string",
                    "name": "",
                    "type": "string"
                }
            ],
            "stateMutability": "view",
            "type": "function"
        },
        {
            "inputs": [],
            "name": "getValue",
            "outputs": [
                {
                    "internalType": "uint256",
                    "name": "",
                    "type": "uint256"
                }
            ],
            "stateMutability": "view",
            "type": "function"
        },
        {
            "inputs": [
                {
                    "internalType": "uint256",
                    "name": "_value",
                    "type": "uint256"
                }
            ],
            "name": "setValue",
            "outputs": [],
            "stateMutability": "nonpayable",
            "type": "function"
        },
        {
            "inputs": [
                {
                    "internalType": "string",
                    "name": "whitePlayer",
                    "type": "string"
                },
                {
                    "internalType": "string",
                    "name": "blackPlayer",
                    "type": "string"
                },
                {
                    "internalType": "string",
                    "name": "gameHistory",
                    "type": "string"
                },
                {
                    "components": [
                        {
                            "internalType": "string",
                            "name": "signature",
                            "type": "string"
                        },
                        {
                            "internalType": "string",
                            "name": "publicKey",
                            "type": "string"
                        }
                    ],
                    "internalType": "struct Chess.PeerCommit[]",
                    "name": "signatures",
                    "type": "tuple[]"
                }
            ],
            "name": "updateGameHistory",
            "outputs": [],
            "stateMutability": "nonpayable",
            "type": "function"
        }
    ],
    "bytecode": "0x608060405273f39fd6e51aad88f6f4ce6ab8827279cfffb92266600260006101000a81548173ffffffffffffffffffffffffffffffffffffffff021916908373ffffffffffffffffffffffffffffffffffffffff16021790555034801561006557600080fd5b50610f3b806100756000396000f3fe608060405234801561001057600080fd5b506004361061004c5760003560e01c80631962061a1461005157806320965255146100815780632f98b4431461009f57806355241077146100bb575b600080fd5b61006b6004803603810190610066919061055c565b6100d7565b6040516100789190610653565b60405180910390f35b6100896101ab565b604051610096919061068e565b60405180910390f35b6100b960048036038101906100b49190610821565b6101f1565b005b6100d560048036038101906100d09190610924565b61033b565b005b6060600083836040516020016100ee92919061098d565b604051602081830303815290604052805190602001209050600160008281526020019081526020016000208054610124906109e0565b80601f0160208091040260200160405190810160405280929190818152602001828054610150906109e0565b801561019d5780601f106101725761010080835404028352916020019161019d565b820191906000526020600020905b81548152906001019060200180831161018057829003601f168201915b505050505091505092915050565b60008060003373ffffffffffffffffffffffffffffffffffffffff1673ffffffffffffffffffffffffffffffffffffffff16815260200190815260200160002054905090565b600260009054906101000a900473ffffffffffffffffffffffffffffffffffffffff1673ffffffffffffffffffffffffffffffffffffffff163373ffffffffffffffffffffffffffffffffffffffff1614610281576040517f08c379a000000000000000000000000000000000000000000000000000000000815260040161027890610a5d565b60405180910390fd5b6000848460405160200161029692919061098d565b604051602081830303815290604052805190602001209050826001600083815260200190815260200160002090816102ce9190610c29565b50836040516102dd9190610cfb565b6040518091039020856040516102f39190610cfb565b60405180910390207f33685f6ebffedede1242e9cbcc736ee4459d21535c0856bd559ffcf0596c7eaa858560405161032c929190610e62565b60405180910390a35050505050565b60008060003373ffffffffffffffffffffffffffffffffffffffff1673ffffffffffffffffffffffffffffffffffffffff16815260200190815260200160002054036103bc576040517f08c379a00000000000000000000000000000000000000000000000000000000081526004016103b390610ee5565b60405180910390fd5b806000803373ffffffffffffffffffffffffffffffffffffffff1673ffffffffffffffffffffffffffffffffffffffff1681526020019081526020016000208190555050565b6000604051905090565b600080fd5b600080fd5b600080fd5b600080fd5b6000601f19601f8301169050919050565b7f4e487b7100000000000000000000000000000000000000000000000000000000600052604160045260246000fd5b61046982610420565b810181811067ffffffffffffffff8211171561048857610487610431565b5b80604052505050565b600061049b610402565b90506104a78282610460565b919050565b600067ffffffffffffffff8211156104c7576104c6610431565b5b6104d082610420565b9050602081019050919050565b82818337600083830152505050565b60006104ff6104fa846104ac565b610491565b90508281526020810184848401111561051b5761051a61041b565b5b6105268482856104dd565b509392505050565b600082601f83011261054357610542610416565b5b81356105538482602086016104ec565b91505092915050565b600080604083850312156105735761057261040c565b5b600083013567ffffffffffffffff81111561059157610590610411565b5b61059d8582860161052e565b925050602083013567ffffffffffffffff8111156105be576105bd610411565b5b6105ca8582860161052e565b9150509250929050565b600081519050919050565b600082825260208201905092915050565b60005b8381101561060e5780820151818401526020810190506105f3565b60008484015250505050565b6000610625826105d4565b61062f81856105df565b935061063f8185602086016105f0565b61064881610420565b840191505092915050565b6000602082019050818103600083015261066d818461061a565b905092915050565b6000819050919050565b61068881610675565b82525050565b60006020820190506106a3600083018461067f565b92915050565b600067ffffffffffffffff8211156106c4576106c3610431565b5b602082029050602081019050919050565b600080fd5b600080fd5b600080fd5b6000604082840312156106fa576106f96106da565b5b6107046040610491565b9050600082013567ffffffffffffffff811115610724576107236106df565b5b6107308482850161052e565b600083015250602082013567ffffffffffffffff811115610754576107536106df565b5b6107608482850161052e565b60208301525092915050565b600061077f61077a846106a9565b610491565b905080838252602082019050602084028301858111156107a2576107a16106d5565b5b835b818110156107e957803567ffffffffffffffff8111156107c7576107c6610416565b5b8086016107d489826106e4565b855260208501945050506020810190506107a4565b5050509392505050565b600082601f83011261080857610807610416565b5b813561081884826020860161076c565b91505092915050565b6000806000806080858703121561083b5761083a61040c565b5b600085013567ffffffffffffffff81111561085957610858610411565b5b6108658782880161052e565b945050602085013567ffffffffffffffff81111561088657610885610411565b5b6108928782880161052e565b935050604085013567ffffffffffffffff8111156108b3576108b2610411565b5b6108bf8782880161052e565b925050606085013567ffffffffffffffff8111156108e0576108df610411565b5b6108ec878288016107f3565b91505092959194509250565b61090181610675565b811461090c57600080fd5b50565b60008135905061091e816108f8565b92915050565b60006020828403121561093a5761093961040c565b5b60006109488482850161090f565b91505092915050565b600081905092915050565b6000610967826105d4565b6109718185610951565b93506109818185602086016105f0565b80840191505092915050565b6000610999828561095c565b91506109a5828461095c565b91508190509392505050565b7f4e487b7100000000000000000000000000000000000000000000000000000000600052602260045260246000fd5b600060028204905060018216806109f857607f821691505b602082108103610a0b57610a0a6109b1565b5b50919050565b7f4f6e6c79206f776e657200000000000000000000000000000000000000000000600082015250565b6000610a47600a836105df565b9150610a5282610a11565b602082019050919050565b60006020820190508181036000830152610a7681610a3a565b9050919050565b60008190508160005260206000209050919050565b60006020601f8301049050919050565b600082821b905092915050565b600060088302610adf7fffffffffffffffffffffffffffffffffffffffffffffffffffffffffffffffff82610aa2565b610ae98683610aa2565b95508019841693508086168417925050509392505050565b6000819050919050565b6000610b26610b21610b1c84610675565b610b01565b610675565b9050919050565b6000819050919050565b610b4083610b0b565b610b54610b4c82610b2d565b848454610aaf565b825550505050565b600090565b610b69610b5c565b610b74818484610b37565b505050565b5b81811015610b9857610b8d600082610b61565b600181019050610b7a565b5050565b601f821115610bdd57610bae81610a7d565b610bb784610a92565b81016020851015610bc6578190505b610bda610bd285610a92565b830182610b79565b50505b505050565b600082821c905092915050565b6000610c0060001984600802610be2565b1980831691505092915050565b6000610c198383610bef565b9150826002028217905092915050565b610c32826105d4565b67ffffffffffffffff811115610c4b57610c4a610431565b5b610c5582546109e0565b610c60828285610b9c565b600060209050601f831160018114610c935760008415610c81578287015190505b610c8b8582610c0d565b865550610cf3565b601f198416610ca186610a7d565b60005b82811015610cc957848901518255600182019150602085019450602081019050610ca4565b86831015610ce65784890151610ce2601f891682610bef565b8355505b6001600288020188555050505b505050505050565b6000610d07828461095c565b915081905092915050565b600081519050919050565b600082825260208201905092915050565b6000819050602082019050919050565b600082825260208201905092915050565b6000610d5a826105d4565b610d648185610d3e565b9350610d748185602086016105f0565b610d7d81610420565b840191505092915050565b60006040830160008301518482036000860152610da58282610d4f565b91505060208301518482036020860152610dbf8282610d4f565b9150508091505092915050565b6000610dd88383610d88565b905092915050565b6000602082019050919050565b6000610df882610d12565b610e028185610d1d565b935083602082028501610e1485610d2e565b8060005b85811015610e505784840389528151610e318582610dcc565b9450610e3c83610de0565b925060208a01995050600181019050610e18565b50829750879550505050505092915050565b60006040820190508181036000830152610e7c818561061a565b90508181036020830152610e908184610ded565b90509392505050565b7f56616c756520616c726561647920736574000000000000000000000000000000600082015250565b6000610ecf6011836105df565b9150610eda82610e99565b602082019050919050565b60006020820190508181036000830152610efe81610ec2565b905091905056fea26469706673582212204c332f99c29e71b5fed30347faf1601d982a9122abf37b8a0c20092b993c608464736f6c63430008180033",
    "linkReferences": {},
    "deployedLinkReferences": {}
}